:020000040000fa
:08000000567d04000000000021
:020000040000fa
:040008006c01000087
:020000040000fa
:04000c006c01000083
:020000040000fa
:040010006c0100007f
:020000040000fa
:040014006c0100007b
:020000040000fa
:040018006c01000077
:020000040000fa
:04001c006c01000073
:020000040000fa
:040020006c0100006f
:020000040000fa
:040024006c0100006b
:020000040000fa
:040028006c01000067
:020000040000fa
:04002c006c01000063
:020000040000fa
:040030006c0100005f
:020000040000fa
:040034006c0100005b
:020000040000fa
:040038006c01000057
:020000040000fa
:04003c006c01000053
:020000040000fa
:040040006c0100004f
:020000040000fa
:040044006c0100004b
:020000040000fa
:040048006c01000047
:020000040000fa
:04004c006c01000043
:020000040000fa
:040050006c0100003f
:020000040000fa
:040054006c0100003b
:020000040000fa
:040058006c01000037
:020000040000fa
:04005c006c01000033
:020000040000fa
:040060006c0100002f
:020000040000fa
:040064006c0100002b
:020000040000fa
:040068006c01000027
:020000040000fa
:04006c006c01000023
:020000040000fa
:040070006c0100001f
:020000040000fa
:040074006c0100001b
:020000040000fa
:040078006c01000017
:020000040000fa
:04007c006c01000013
:020000040000fa
:040080006c0100000f
:020000040000fa
:040084006c0100000b
:020000040000fa
:040088006c01000007
:020000040000fa
:04008c006c01000003
:020000040000fa
:040090006c010000ff
:020000040000fa
:04009400527a00009c
:020000040000fa
:040098006c010000f7
:020000040000fa
:04009c006c010000f3
:020000040000fa
:0400a0006c010000ef
:020000040000fa
:0400a4006c010000eb
:020000040000fa
:0400a8006c010000e7
:020000040000fa
:0400ac006c010000e3
:020000040000fa
:0400b0006c010000df
:020000040000fa
:0400b4006c010000db
:020000040000fa
:0400b8006c010000d7
:020000040000fa
:0400bc006c010000d3
:020000040000fa
:0400c0006c010000cf
:020000040000fa
:0400c4006c010000cb
:020000040000fa
:0400c8006c010000c7
:020000040000fa
:0400cc006c010000c3
:020000040000fa
:0400d0006c010000bf
:020000040000fa
:0400d4006c010000bb
:020000040000fa
:0400d8006c010000b7
:020000040000fa
:040108006c01000086
:020000040000fa
:04010c006c01000082
:020000040000fa
:040110006c0100007e
:020000040000fa
:040114006c0100007a
:020000040000fa
:040118006c01000076
:020000040000fa
:04011c006c01000072
:020000040000fa
:040120006c0100006e
:020000040000fa
:040124006c0100006a
:020000040000fa
:040128006c01000066
:020000040000fa
:04012c006c01000062
:020000040000fa
:040130006c0100005e
:020000040000fa
:040134006c0100005a
:020000040000fa
:040138006c01000056
:020000040000fa
:04013c006c01000052
:020000040000fa
:040140006c0100004e
:020000040000fa
:040144006c0100004a
:020000040000fa
:040148006c01000046
:020000040000fa
:04014c006c01000042
:020000040000fa
:040150006c0100003e
:020000040000fa
:040154006c0100003a
:020000040000fa
:040158006c01000036
:020000040000fa
:04015c006c01000032
:020000040000fa
:040160006c0100002e
:020000040000fa
:040164006c0100002a
:020000040000fa
:040168006c01000026
:020000040000fa
:04016c006c01000022
:020000040000fa
:040170006c0100001e
:020000040000fa
:040174006c0100001a
:020000040000fa
:040178006c01000016
:020000040000fa
:04017c006c01000012
:020000040000fa
:040180006c0100000e
:020000040000fa
:040184006c0100000a
:020000040000fa
:040188006c01000006
:020000040000fa
:04018c006c01000002
:020000040000fa
:040190006c010000fe
:020000040000fa
:040194006c010000fa
:020000040000fa
:040198006c010000f6
:020000040000fa
:04019c006c010000f2
:020000040000fa
:0401a0006c010000ee
:020000040000fa
:0401a4006c010000ea
:020000040000fa
:0401a8006c010000e6
:020000040000fa
:0401ac006c010000e2
:020000040000fa
:0401b0006c010000de
:020000040000fa
:0401b4006c010000da
:020000040000fa
:0401b8006c010000d6
:020000040000fa
:0401bc006c010000d2
:020000040000fa
:0401c0006c010000ce
:020000040000fa
:0401c4006c010000ca
:020000040000fa
:0401c8006c010000c6
:020000040000fa
:0401cc006c010000c2
:020000040000fa
:0401d0006c010000be
:020000040000fa
:0401d4006c010000ba
:020000040000fa
:0401d8006c010000b6
:020000040000fa
:1002000091018800800078000000eb0015003700a5
:10021000e280400032a0b4009101ba00e2804000c8
:1002200032a0b4009102ba00e280400032a0b400d3
:100230000002eb00472bde00f507b200602ce10066
:1002400004003a000059eb008301e900fdff3e0085
:10025000040037006128e100010032000082eb0059
:100260000b00070011c3ba001101ba000604e00038
:1002700003003a000200e000e5ff3a00000006003b
:10028000f607b2009601880082007800f5ff37007b
:100290003159ba008301e9000c0032002159ba003b
:1002a0008301e900080032000400e00003003a0086
:1002b000e280400032a0b400f5ff370011d9ba0047
:1002c0008301e900faff3a008100e800e180400084
:1002d00032a0b400000006000040da000000fe007a
:020000040000fa
:1002e000ccde2000cddf2000030008000400000069
:1002f000bc1e7800bc1eea004240af00cd9eea0062
:1003000000000000eceb2000cddf2000aa6c020012
:1003100000000000eceb20004ded2000bc1e78003a
:10032000ac167800946c0200000000006000200011
:100330002e00b400806b8800000006004ced200009
:100340000de02000aa6c0200000000006cec200010
:100350004de02000aa6c0200000000006cec2000c0
:100360004ded2000bc1e7800ac167800946c0200a5
:1003700000000000600020002e00b400806b8800a8
:10038000000006004ced20008de02000aa6c020069
:1003900000000000a0ff2f00fc2db400002eb400d0
:1003a000042eb400082eb400ccde2000cddf2000e7
:1003b000aa6c0200000000000cdf20000de020000d
:1003c000aa6c020000000000600020002e00b400b3
:1003d000806b8800000006004cdf20004de020000c
:1003e000aa6c0200000000008cdf20008de02000dd
:1003f000aa6c020000000000600020002e00b40083
:10040000806b880000000600d82eef0020ff2f0030
:10041000a076880000d72b00b0768800ccdf2000c3
:100420004ded2000946c020000000000946c02006e
:10043000000000000ce02000aa6c02000000000098
:10044000d7eeae00d82eec00600020002e00b400e5
:10045000806b88000000060020ff2f00a076880037
:1004600000d72b00b07688004ce020004ded200036
:10047000946c020000000000946c02000000000078
:100480008ce02000aa6c020000000000d7eeae0055
:10049000d82eec00600020002e00b400806b880095
:1004a0000000060020002000d80ee300d200350036
:1004b000ccdf2000cdde200007000900bc1e780044
:1004c000600020002e00b400806b88000000060051
:1004d0006cec20004ded2000bc1e7800ac167800be
:1004e000946c0200000000004ced2000cdd72000ed
:1004f0001256020000000000600020002e00b40030
:10050000806b880000000600eceb20008ded2000e1
:10051000bc1e7800ac167800946c0200000000004d
:100520008ced20002dd820001256020000000000a3
:10053000600020002e00b400806b880000000600e0
:100540006cec20004ded2000bc1e7800ac1678004d
:10055000eceb2000946c0200000000004ced200049
:100560008dd820001256020000000000600020001c
:100570002e00b400806b8800000006002c0ee20004
:10058000040032002c2eed002c0ee2006900320037
:100590003800370010ff2f00a07688006066260024
:1005a000b07688004ded2000acbb2000946c0200ba
:1005b00000000000eceb2000946c02000000000042
:1005c000acec2000946c0200000000002cec200039
:1005d000aa6c0200000000004ced20008ded200010
:1005e000bc1e7800ac167800600020002e00b4001d
:1005f000806b8800000006006cec20004ded2000b0
:10060000946c0200000000004ced2000edd82000aa
:100610001256020000000000eceb20008ded2000df
:10062000946c020000000000600020002e00b40066
:10063000806b8800000006008ced20004dd9200062
:1006400012560200000000006c8aaf006a003700fa
:10065000ccd720000ddd20000400080002000000bf
:10066000bc1e7800bc1e78000c86e8006c8aa800ce
:10067000610037006cec20008ded2000bc1e78007e
:10068000ac16ea004240af00dd96ea002cbc200028
:10069000946c020000000000acec20004ded200046
:1006a000bc1e7800ac167800eceb2000946c0200c5
:1006b00000000000acbb2000946c020000000000b1
:1006c0008ced2000aa6c02000000000060002000f9
:1006d0002e00b400806b8800000006004ded200065
:1006e0002cec2000aa6c020000000000eceb2000c3
:1006f0008ded2000bc1e7800ac167800826c0200e4
:10070000000000004ced2000946c0200000000008e
:10071000600020002e00b400806b880000000600fe
:100720008ced20004dd92000125602000000000080
:10073000310037004cd9200020ff2f00c076880000
:10074000f0532600d07688008ded2000946c0200d6
:10075000000000008ced2000cde32000bc1e7800de
:10076000ac167800ccd72000edd82000bc1e780055
:10077000ac1678002cbc2000946c02000000000035
:100780008cd820004ded2000bc1e7800ac167800ff
:10079000cce32000946c0200000000004ced20002f
:1007a000edd82000aa6c02000000000060002000cc
:1007b0002e00b400806b8800000006008cd820005a
:1007c0004dd92000bc1e7800ac1678002cbc20004f
:1007d000946c0200000000002cd820008ded200059
:1007e000946c0200000000008ced20004dd9200028
:1007f000aa6c020000000000765504000000000012
:020000040000fa
:1008000000002000900188000d8020004e4820004c
:1008100082420400000000000000200090018800d7
:100820000d8020000e4920008242040000000000dc
:1008300000002000900188000d8020004e52200012
:100840008242020000000000565902000000000031
:100850000000060000002000e147200024580200ac
:1008600000000000cdd325001d00ba000080fb0071
:100870005a580200000000003d00ba004800de00a7
:100880005a580200000000001d00ba000080fb0062
:100890005a580200000000001d00ba004800de00a7
:1008a0005a58020000000000a00020005a58020020
:1008b0000000000080002000f052880000002000ae
:1008c000900188000d8020006e4e200082420200c0
:1008d00000000000a00220005a58020000000000a2
:1008e000a00020005a58020000000000a0002000d4
:1008f0005a580200000000000000060076657200f1
:1009000073696f006e3a00000001e9000280080080
:10091000010000003d00ba008018780000000600c9
:100920000001e9000280080026000000f00320001a
:100930000d0060000f003a0010042400003b880006
:1009400000002000203b88001d3b88000500fc00c3
:1009500050052000303b8800a00a2000303b880072
:1009600061e7a800000000000000000061e7af00a0
:10097000feff370031007800800ebb0010fc2f0016
:100980000d0070000080ea000c003a001000240006
:10099000003b88000500fc0050052000303b88002b
:1009a000a00a2000303b880061e7a800000000009a
:1009b0000000000061e7af00feff37008d86e80011
:1009c00000000000000000000000060000067800a3
:1009d00081067800000320005a5802000000000041
:1009e000800720005a580200000000003d007800f7
:1009f00061a72000de6902000000000060a720005f
:100a000010580200000000005e2aed0008003a00c5
:100a100080002000f0528800a00020005a580200f8
:100a2000000000000c06e900eaff3a0000000600a2
:100a3000900020005a580200000000000c06e90057
:100a4000e4ff3a00000006000001e900028008000f
:100a50000700000004590200000000008018780020
:100a6000e00220005a5802000000000000000000d0
:100a70000000000000000600c1e1a90040a7a90095
:100a80008026020000000000be7c02000000000082
:100a90008e720200000000000c0402000000000042
:100aa000d1e2a800d1a2a800d1c2a800dd02a8000e
:100ab00000002800f05288008460ae00feff37007e
:100ac0008460a9005e2aed00fbff3a000000fe00f2
:100ad0003220ef000d802000f00320000d006000a8
:100ae0000e003a0010042400003b88006427ef0049
:100af0001d3b88000500fc0050052000303b8800ad
:100b0000a00a2000303b880061e7a8000000000038
:100b10000000000061e7af00feff37000080eb003f
:100b2000808ebb00800ebb0010fc2f000d007000fb
:100b30000080ea000c003a0010002400003b88000e
:100b40000500fc0050052000303b8800a00a200072
:100b5000303b880061e7a8000000000000000000b2
:100b600061e7af00feff37008d86e80000c020007f
:100b70000d00e100d8ff3a00000006000000000070
:100b80000000000000000000000000000000000065
:100b90000000000000000000000000000000000055
:100ba0000000000000000000000000000000000045
:100bb0000000000000000000000000000000000035
:101800007e58020000000000adba20000006eb0088
:1018100000002000e1fd200024580200000000002c
:101820000c00780061a72000646a0200000000003c
:1018300060a72000105802000000000000002000f7
:1018400041fe2000245802000000000000f02f009c
:101850001d006000811620000100b8000100780022
:1018600061a72000646a02000000000060a7200059
:10187000105802000000000000002000c1fe2000ff
:1018800024580200000000000000200001ff20009a
:101890002458020000000000f00f20001d0060002e
:1018a0004300de0061a72000646a0200000000001f
:1018b00060a7200010580200000000000000200077
:1018c000a1ff2000245802000000000000002000ba
:1018d000010021001d00a600000020001d00a60040
:1018e0004100210024580200000000008d86e8001d
:1018f0000c06e8006860e100c5ff3a000000200027
:10190000c1ee20002458020000000000170037003c
:10191000500020008000eb004800dd00c808de0019
:1019200001007000e15280000100b80072b7210090
:10193000110009004288d800815080008100d10048
:101940000180e60001007800205188004006200058
:10195000106988007001200020698800542eef0073
:10196000562eef00728aa900a5ff37000000200064
:10197000a1ef200024580200000000000e003700f4
:1019800000002000a1f02000245802000000000008
:10199000300020009c59020000000000710020006f
:1019a00001006000adba20008d0640008d064000a9
:1019b0001d00a20092ff370000002000c1f12000ae
:1019c0002458020000000000000020000100210057
:1019d000718aae0000002000718aae004100210033
:1019e000245802000000000002003700718aaa009b
:1019f00083ff370000002000e1f22000245802009d
:101a0000000000002051800071b721000100b800e3
:101a1000e2528000110009004288d80000017800dd
:101a20004800de0061a72000646a02000000000098
:101a300060a7200010580200000000004810dd00e0
:101a400061a720002c6a020000000000796aef0004
:101a500060a72000105802000000000000002000d5
:101a600041f4200024580200000000000d0037005f
:101a7000a0002000fa590200000000004800dd002c
:101a8000c808de0001007000e15280000100b800cb
:101a900072b72100110009004288d8002051880047
:101aa00057ff370000002000a1f420002458020056
:101ab000000000001069800061a72000646a020035
:101ac0000000000060a72000105802000000000085
:101ad0000000200081f520002458020000000000d2
:101ae00005003700500020009c5902000000000053
:101af0001069880042ff370000002000c1f5200077
:101b00002458020000000000206980004500de002b
:101b100061a72000646a02000000000060a72000a6
:101b20001058020000000000206980004b00dd001a
:101b300061a720002c6a020000000000796aef0013
:101b400060a7200010580200000000000a003700c3
:101b5000a0002000fa590200000000004500dd004e
:101b6000cb08de0001007000f10f200001006000d2
:101b70002069880022ff370000002000e1f62000e5
:101b80002458020000000000a0728000801f78002e
:101b900080007800d002200001f0a7005a5802000f
:101ba000000000004f00780000f0a7000000ea00ed
:101bb000811620000089b800821f78000300780099
:101bc00061a72000646a02000000000060a72000f6
:101bd00010580200000000004f00780061a72000ac
:101be0002c6a020000000000796aef0060a7200064
:101bf000105802000000000000002000c1fe20007c
:101c0000245802000000000009003700a000200056
:101c1000fa590200000000008000fd00821620003a
:101c2000110009004208d800a0728800f4fe3700b5
:101c30000000200001f820002458020000000000ed
:101c4000b0728000801f780080007800d0022000f1
:101c500001f0a7005a580200000000004f00780071
:101c600000f0a7000000ea00811620000089b800fb
:101c7000821f78000300780061a72000646a0200d8
:101c80000000000060a720001058020000000000c3
:101c90004f00780061a720002c6a020000000000bd
:101ca000796aef0060a720001058020000000000d1
:101cb00000002000c1fe20002458020000000000a7
:101cc00009003700a0002000fa59020000000000bf
:101cd0008000fd0082162000110009004208d80093
:101ce000b0728800c6fe37000000200021f92000f5
:101cf0002458020000000000000020000100210024
:101d0000728aae0000002000728aae0041002100fd
:101d1000245802000000000002003700728aaa0066
:101d2000b7fe37000000200081fa2000245802008e
:101d3000000000000100370000000600d859020032
:101d400000000000110620000100e100f0fe32005a
:101d5000210620000100e10009ff320031062000c9
:101d60000100e10021ff3200410620000100e100f6
:101d70003fff3200510620000100e10059ff320010
:101d8000610620000100e10071ff320071062000b1
:101d90000100e1009dff3200810620000100e1000a
:101da000c8ff3200910620000100e100dbff320095
:101db000a10720000100e100dfff32000103200045
:101dc0000100e10091003200310220000100e10039
:101dd000a30032008afe37000a0a61002920610050
:101de00075746f00636f6d00706c650074650a0038
:101df000000000000a62290020746f0067676c0011
:101e000065206800616c6c00207573006167650077
:101e1000000000000a2065006e74650072206300f7
:101e20006f64650020746f0020746f0067676c003a
:101e300065200a00000000000a6329002063610099
:101e40006c6962007261740065206800616c6c00ee
:101e5000206d6f0064653a00200000000a642900cc
:101e600020657200706d2000666f7200206861004e
:101e70006c6c200063616c006962720061746900bf
:101e80006f6e3a0020000000206b2d00657270001c
:101e90006d0000000a65290020504c004c206200b3
:101ea000616e64007769640074683a002000000085
:101eb00020487a00000000000a66290020504c00eb
:101ec0004c206400616d7000696e670020666100df
:101ed00063746f00723a2000000000000a67290056
:101ee000206861006c6c20006f666600736574008a
:101ef0002c2066006f727700617264003a20000047
:101f00000a682900206861006c6c20006f6666001a
:101f1000736574002c20720065766500727365002d
:101f20003a2000000a692900206861006c6c2000da
:101f300061737300697374006564200073656e00db
:101f4000736f72006c657300733a2000000000002c
:101f50000a0a300029207200657365007420680049
:101f6000616c6c00207374006174690073746900a3
:101f700063730a002329200064697300706c610098
:101f800079206800616c6c002073740061746900d2
:101f90007374690063730a007a2920007265740003
:101fa00075726e0020746f00206d6100696e2000f4
:101fb0006d656e00750a0a00000000000a206300cb
:101fc0006f6465003a2000002c2061006e676c0091
:101fd000653a2000000000002064650067000000f2
:101fe0002c2063006f6e6600696465006e63650097
:101ff0003a2000002c207500736564003a20000030
:1020000079657300000000006e6f00000000200082
:10201000a101210024580200000000008de52000ed
:1020200009000900801eeb00fa58020000000000c1
:10203000f3fd37000a0a200068616c006c20730011
:1020400074617400697374006963730020646100d3
:10205000746120007265730065740a000a00000054
:102060000000200081192100245802000000000017
:10207000c072800061a72000646a020000000000b6
:1020800060a720001058020000000000580ee20077
:102090004a00320000002000411b210024580200a9
:1020a00000000000c07280008001df00a36b880088
:1020b0008301ea000300dd00b06b88004dd72000eb
:1020c000826c020000000000ace52000946c02006d
:1020d00000000000a0fe2f00c06b880000602a00f6
:1020e000d06b88008cd72000946c020000000000a8
:1020f000226d02000000000000002000c11b210032
:102100002458020000000000c07280008001df003f
:10211000a36b88008301ea000300dd00b06b880038
:102120004dd72000826c0200000000004cd7200038
:102130008dd72000bc1e7800ac1678004dd720004b
:10214000ace52000946c0200000000004cd7200099
:10215000946c020000000000dd16ea004240af006f
:10216000dd96ea008dd72000ece52000946c02009b
:10217000000000004cd72000aa6c02000000000004
:10218000dc6c020000000000a0fe2f00a06b8800a5
:1021900000a02500b06b88004cd72000946c020092
:1021a00000000000226d020000000000000020007e
:1021b000611c2100245802000000000000002000e3
:1021c000611a2100245802000000000010738000f2
:1021d00061a72000646a02000000000060a72000e0
:1021e0001058020000000000620ee2004a003200b7
:1021f00000002000411b21002458020000000000c4
:10220000107380008001df00a36b88008301ea0067
:102210000300dd00b06b88004dd72000826c020007
:10222000000000004ce62000946c0200000000005a
:10223000a0fe2f00c06b880000602a00d06b8800d1
:102240008cd72000946c020000000000226d020078
:102250000000000000002000c11b210024580200e3
:1022600000000000107380008001df00a36b880075
:102270008301ea000300dd00b06b88004dd7200029
:10228000826c0200000000004cd720008dd7200097
:10229000bc1e7800ac1678004dd720004ce620001c
:1022a000946c0200000000004cd72000946c0200e7
:1022b00000000000dd16ea004240af00dd96ea00b3
:1022c0008dd720008ce62000946c020000000000f6
:1022d0004cd72000aa6c020000000000dc6c020059
:1022e00000000000a0fe2f00a06b880000a02500c9
:1022f000b06b88004cd72000946c020000000000f6
:10230000226d02000000000000002000611c21007e
:102310002458020000000000a00020005a580200cb
:1023200000000000fa5802000000000034fd3700f1
:102330000a0a2000666f720077617200640a630007
:102340006f756e00743a2000000000000a0a200039
:102350007265760065727300650a63006f756e00c2
:10236000743a2000000000000a6176006572610086
:1023700067653a002000000020646500670a73006a
:1023800074642d00646576003a20000020646500c6
:10239000670000007e5802000000000000002000de
:1023a000c15e210024580200000000004c003700ec
:1023b00030002000f05b880000002000005c8800f6
:1023c00080072000105c880000002000205c88004e
:1023d00000002000305c8800f05b8000015c800021
:1023e0000080ea008100ea000080b000405c8800c4
:1023f000515c8800105c8000215c80000080ea0055
:102400008100ea000080b000605c8800715c880098
:10241000305c80000000ea00805c8800000f200033
:10242000105d8800c0002000f05c880000002000e3
:10243000005d8800105d80000000ea00405d8800bb
:10244000f05c8000015d80000080ea008100ea000d
:102450000080b000205d8800315d8800d0cc200075
:10246000400bbc00635f8800401f20000153270021
:102470000100b800e2528000110009004288d80033
:1024800020538800d0cc2c005c0abc00c3528800ca
:10249000714aa800712aa80004782000c008200012
:1024a0005c0abc00110009004499d800705f8800e4
:1024b000041c2000c00820005c0abc0011000900b8
:1024c0004499d800805f8800603b2000905f8800be
:1024d000a0192000c07388006d2ea900adff370041
:1024e00000002000815f210024580200000000004d
:1024f000305c800061a72000646a020000000000d8
:1025000060a72000105802000000000007003700fc
:10251000500020009c59020000000000305c880040
:102520000000ea00805c88009aff3700000020006d
:10253000816121002458020000000000105c80002e
:1025400061a72000646a02000000000060a720006c
:102550001058020000000000205c800061a72000ed
:102560002c6a02000000000060a720001058020042
:10257000000000000d003700a0002000fa59020002
:102580000000000000f0a7004a023700105c88003d
:10259000215c88000080ea008100ea000080b00031
:1025a000605c8800715c88007aff370000002000c2
:1025b000416221002458020000000000f05b80000e
:1025c00061a72000646a02000000000060a72000ec
:1025d0001058020000000000005c800061a720008d
:1025e0002c6a02000000000060a7200010580200c2
:1025f000000000000d003700a0002000fa59020082
:102600000000000000f0a7002a023700f05b8800fd
:10261000015c88000080ea008100ea000080b000d0
:10262000405c8800515c88005aff370000002000a1
:10263000016321002458020000000000105d8000aa
:1026400061a72000646a02000000000060a720006b
:102650001058020000000000070037005000200062
:102660009c59020000000000105d88000000ea0094
:10267000405d880047ff37000000200021652100f1
:102680002458020000000000f05c800061a72000d8
:10269000646a02000000000060a7200010580200d9
:1026a00000000000005d800061a720002c6a02008d
:1026b0000000000060a72000105802000000000089
:1026c0000d003700a0002000fa59020000000000b1
:1026d00000f0a700f7013700f05c8800015d88007a
:1026e0000080ea008100ea000080b000205d8800e0
:1026f000315d880027ff370000002000e1652100e0
:102700002458020000000000605f8000981f020053
:102710000000000000002000816721002458020012
:102720000000000007003700a0002000fa59020056
:1027300000000000c61f020000000000605f88006b
:1027400014ff370000002000a16721002458020078
:102750000000000030872000580abc000300780009
:1027600061a72000646a02000000000060a720004a
:1027700010580200000000000000200061682100e5
:10278000245802000000000007003700500020001d
:102790009c59020000000000e10120000100b80087
:1027a000c0528800fbfe370000002000a168210015
:1027b0002458020000000000a0992100f20bbc0088
:1027c0000300780061a72000646a02000000000096
:1027d00060a720001058020000000000070037002a
:1027e000500020009c59020000000000a1002000c1
:1027f0000100b800905f8800e6fe3700000020006e
:10280000a16921002458020000000000c008200037
:102810005c0abc00745f8000110009004499d80074
:10282000801f78004600de0061a72000646a020075
:102830000000000060a72000105802000000000007
:102840004f0078004a00dd0061a720002c6a0200da
:1028500000000000786aef0060a720001058020016
:102860000000000000002000217521002458020013
:102870000000000010003700a0002000fa590200fc
:10288000000000004600dd00ca08de000102700002
:10289000c00820005c0abc00110009004499d8005f
:1028a00000f0a100010024000180e6000100780092
:1028b000705f8800b7fe370000002000816b2100a8
:1028c0002458020000000000c00820005c0abc0080
:1028d000845f8000110009004499d800801f7800af
:1028e0004600de0061a72000646a020000000000cc
:1028f00060a7200010580200000000004f00780080
:102900004a00dd0061a720002c6a020000000000e0
:10291000786aef0060a72000105802000000000055
:102920000000200021752100245802000000000052
:1029300010003700a0002000fa590200000000003b
:102940004600dd00ca08de0001027000c008200059
:102950005c0abc00110009004499d80000f0a100f5
:10296000010024000180e60001007800805f8800fb
:1029700088fe370000002000416d2100245802002d
:1029800000000000205380005c0abc0004532700b4
:10299000110009004499d80061a72000646a020070
:1029a0000000000060a72000105802000000000096
:1029b00000002000217521002458020000000000c2
:1029c0000a003700500020009c590200000000005f
:1029d000015327000100b800e252800011000900f5
:1029e0004288d800205388006afe3700000020008b
:1029f000416e210024580200000000000000200069
:102a000061742100712aae0000002000712aae001e
:102a1000c1742100245802000000000002003700a9
:102a2000712aaa005bfe370000002000017021001f
:102a30002458020000000000000020006174210002
:102a4000714aae0000002000714aae00c17421003e
:102a5000245802000000000002003700714aaa005a
:102a60004cfe370000002000c171210024580200f4
:102a700000000000c07380004c00de0061a7200051
:102a8000646a02000000000060a7200010580200e5
:102a900000000000c07380004400dd0061a720003a
:102aa0002c6a0200000000007a6aef0060a7200094
:102ab0001058020000000000000020006175210095
:102ac00024580200000000000a003700a000200087
:102ad000fa590200000000004c00dd00c408de00ce
:102ae000010070004220af00a0192000c0738800d0
:102af00028fe370000002000417321002458020006
:102b0000000000000100370000000600d859020054
:102b100000000000110620000100e10024fe320048
:102b2000210620000100e10079fe3200310620007c
:102b30000100e10090fe3200410620000100e100aa
:102b4000adfe3200510620000100e100c3fe32005c
:102b5000610620000100e100dafe3200710620006b
:102b60000100e100f0fe3200810620000100e100da
:102b700006ff3200910620000100e10018ff32003c
:102b8000a10620000100e1003bff3200b106200059
:102b90000100e10067ff3200c10620000100e100f2
:102ba00088ff3200d10620000100e1009cff3200c6
:102bb000e10620000100e100a8ff3200f10620003c
:102bc0000100e100c1ff3200a10720000100e10087
:102bd000cdff3200effd37000a612900206175004a
:102be000746f63006f6d70006c657400650a00009f
:102bf0000a2020007068610073652000636f6e001a
:102c000074726f006c206c006f6f70002c2072006b
:102c100065636f0076657200790a620029203100d1
:102c2000737420006f72640065723a002000000027
:102c30000a63290020326e0064206f007264650010
:102c4000723a2000000000000a642900203372005c
:102c500064206f0072646500723a2000000000007a
:102c60000a202000616d70006c6974007564650055
:102c700020636f006e7472006f6c20006c6f6f00c9
:102c8000702c2000726563006f76650072790a000f
:102c90006529200031737400206f72006465720032
:102ca0003a2000000a66290020326e0064206f007e
:102cb00072646500723a2000000000000a67290073
:102cc000207075006c73650020776800656e2000c9
:102cd0006375720072656e0074206400726f70001c
:102ce00073206200656c6f00773a200000000000de
:102cf000204100000a682900207075006c7365008f
:102d000020776900647468003a2000002075730021
:102d1000656300000a692900207075006c73650006
:102d200020252000666f72002065780069743a00e3
:102d3000200000000a6a2900207075006c7365008d
:102d40002025200066696c00746572002035300013
:102d500025207300746570002072650073706f0029
:102d60006e736500207469006d653a0020000000f4
:102d70000a6b290020737000656564002066690095
:102d80006c74650072203500302520007374650076
:102d900070207200657370006f6e730065207400a0
:102da000696d65003a2000000a6c290020747200e9
:102db00079207200657374006172740020666f0080
:102dc000723a2000000000000a6d290020636800ac
:102dd00065636b0020666f007220730070696e007f
:102de0006e696e0067206d006f746f00722c20009a
:102df0006472690076655f00303a200000000000d0
:102e00000a6e29002063680065636b0020666f000e
:102e10007220740068726f0074746c006520630027
:102e20006c6f730065642c00206472006976650025
:102e30005f303a00200000000a6f290020706f0008
:102e400073742000726563006f76650072792000ec
:102e5000746872006f7474006c65200072616d009c
:102e600070203a00200000000a0a7a00292072002f
:102e700065747500726e2000746f20006d616900ca
:102e80006e206d00656e75000a0a0000656e6100b7
:102e9000626c6500640000006469730061626c002c
:102ea00065640000206d7300656300002073650099
:102eb000630000007e5802000000000000002000b7
:102ec000a1b4210024580200000000005200370085
:102ed000e0d22700206a8800c0fb2700306a880003
:102ee00000002000b05a8800d0cc2400c05a8800ce
:102ef00080012000d05a880000002000e05a88009d
:102f0000001e2000f05a8800b05a8000c15a80008c
:102f10000080ea008100ea000080b000005b8800c9
:102f2000115b8800d05a8000e15a80000080ea00de
:102f30008100ea000080b000205b8800315b8800df
:102f4000f05a80000000ea00405b8800000020008a
:102f5000505b8800e07a2000605b880080012000e0
:102f6000705b880000002000805b8800001e20004d
:102f7000905b8800505b8000615b80000080ea000d
:102f80008100ea000080b000a05b8800b15b88008f
:102f9000705b8000815b80000080ea008100ea00b5
:102fa0000080b000c05b8800d15b8800905b80002f
:102fb0000000ea00e05b880040062000b05c88006a
:102fc00050002000905c880000002000a05c880079
:102fd000b05c80000000ea00e05c8800905c80004b
:102fe000a15c80000080ea008100ea000080b0005f
:102ff000c05c8800d15c880050002000006488001c
:10300000e09527009051880000032000106a880096
:103010006ccea900a7ff37000000200061b5210099
:103020002458020000000000f05a800061a7200030
:10303000646a02000000000060a72000105802002f
:103040000000000007003700500020009c590200db
:1030500000000000f05a88000000ea00405b880091
:1030600094ff37000000200061b7210024580200bf
:1030700000000000d05a800061a72000646a0200ae
:103080000000000060a720001058020000000000af
:10309000e05a800061a720002c6a020000000000b6
:1030a00060a7200010580200000000000d0037004b
:1030b000a0002000fa5902000000000000f0a70064
:1030c0007cff3700d05a8800e15a88000080ea006f
:1030d0008100ea000080b000205b8800315b88003e
:1030e00074ff37000000200021b82100245802009e
:1030f00000000000b05a800061a72000646a02004e
:103100000000000060a7200010580200000000002e
:10311000c05a800061a720002c6a02000000000055
:1031200060a7200010580200000000000d003700ca
:10313000a0002000fa5902000000000000f0a700e3
:103140005cff3700b05a8800c15a88000080ea004e
:103150008100ea000080b000005b8800115b8800fd
:1031600054ff370000002000e1b82100245802007d
:1031700000000000905b800061a72000646a0200ec
:103180000000000060a720001058020000000000ae
:1031900007003700500020009c590200000000008a
:1031a000905b88000000ea00e05b880041ff370088
:1031b00000002000e1ba21002458020000000000b5
:1031c000705b800061a72000646a020000000000bc
:1031d00060a720001058020000000000805b800003
:1031e00061a720002c6a02000000000060a72000f8
:1031f00010580200000000000d003700a000200061
:10320000fa5902000000000000f0a70029ff370073
:10321000705b8800815b88000080ea008100ea0022
:103220000080b000c05b8800d15b880021ff3700c0
:1032300000002000a1bb2100245802000000000073
:10324000505b800061a72000646a0200000000005b
:1032500060a720001058020000000000605b8000a2
:1032600061a720002c6a02000000000060a7200077
:1032700010580200000000000d003700a0002000e0
:10328000fa5902000000000000f0a70009ff370013
:10329000505b8800615b88000080ea008100ea00e2
:1032a0000080b000a05b8800b15b880001ff3700a0
:1032b0000000200061bc2100245802000000000032
:1032c000b05c800061a72000646a0200000000007a
:1032d00060a720001058020000000000070037001f
:1032e000500020009c59020000000000b05c8800e3
:1032f0000000ea00e05c8800eefe370000002000dd
:1033000021be21002458020000000000905c8000d3
:1033100061a72000646a02000000000060a720008e
:103320001058020000000000a05c800061a720008f
:103330002c6a02000000000060a720001058020064
:10334000000000000d003700a0002000fa59020024
:103350000000000000f0a700d6fe3700905c880057
:10336000a15c88000080ea008100ea000080b000d3
:10337000c05c8800d15c8800cefe370000002000d1
:10338000e1be21002458020000000000905180009e
:1033900072142000110009000280d80061a72000eb
:1033a000646a02000000000060a7200010580200bc
:1033b0000000000000002000a1c0210024580200ed
:1033c000000000000b003700a00020009c59020004
:1033d0000000000000f0a100410620000180e6008e
:1033e00040062000711420000100b80090518800b0
:1033f000b0fe370000002000c1c0210024580200a8
:1034000000000000206a80007214200011000900f2
:103410000280d80061a72000646a0200000000005a
:1034200060a72000105802000000000000002000eb
:1034300061c2210024580200000000000b00370088
:10344000a00020009c5902000000000000f0a10034
:10345000410620000180e600400620007114200093
:103460000100b800206a880092fe370000002000aa
:1034700081c221002458020000000000306a800050
:1034800072142000110009000280d80061a72000fa
:10349000646a02000000000060a7200010580200cb
:1034a000000000000000200021c421002458020078
:1034b000000000000b003700a00020009c59020013
:1034c0000000000000f0a100410620000180e6009d
:1034d00040062000711420000100b800306a880006
:1034e00074fe37000000200041c42100245802006f
:1034f000000000000064800061a72000646a0200f0
:103500000000000060a7200010580200000000002a
:1035100005003700a00020009c59020000000000b8
:103520000064880063fe37000000200041c62100cf
:103530002458020000000000106a800061a72000eb
:10354000646a02000000000060a72000105802001a
:1035500000000000190037003c0de20012003200ac
:103560000000200061c82100245802000000000073
:103570008000eb00c0fb2700e26980001100090019
:103580004288d80061a72000646a020000000000a1
:1035900060a720001058020000000000a0002000da
:1035a0005a58020000000000a00020009c590200b0
:1035b00000000000106a88003efe37000000200076
:1035c000a1c92100245802000000000001003700ba
:1035d00000000600d859020000000000110620007b
:1035e0000100e1003afe3200210620000100e10066
:1035f00095fe3200310620000100e100acfe3200f1
:10360000410620000100e100c9fe32005106200001
:103610000100e100dffe3200610620000100e10050
:10362000f6fe3200710620000100e10013ff3200b7
:10363000810620000100e10029ff320091062000f0
:103640000100e10040ff3200a10620000100e1007e
:103650005dff3200b10620000100e10078ff32007a
:10366000c10620000100e10093ff3200d1062000d6
:103670000100e100a7ff3200e10620000100e100a7
:10368000b5ff3200a10720000100e100d0ff3200a9
:1036900008fe37000a61290020617500746f63001d
:1036a0006f6d70006c657400650a00000a202000d0
:1036b0007068610073652000636f6e0074726f0044
:1036c0006c206c006f6f70002c20640072697600b3
:1036d000652033000a6229002031730074206f00d6
:1036e00072646500723a2000000000000a6329003d
:1036f00020326e0064206f0072646500723a200010
:10370000000000000a6429002033720064206f006a
:1037100072646500723a2000000000000a20200058
:103720007068610073652000636f6e0074726f00d3
:103730006c206c006f6f70002c2064007269760042
:10374000652032000a6529002031730074206f0063
:1037500072646500723a2000000000000a662900c9
:1037600020326e0064206f0072646500723a20009f
:10377000000000000a6729002033720064206f00f7
:1037800072646500723a2000000000000a202000e8
:10379000616d70006c6974007564650020636f0072
:1037a0006e7472006f6c20006c6f6f00700a68009e
:1037b00029203100737420006f72640065723a0032
:1037c000200000000a69290020326e0064206f008a
:1037d00072646500723a2000000000000a6a290045
:1037e00020696e00766f6b006520660069656c006d
:1037f00064776500616b65006e696e00672061002b
:10380000742061006d706c006974750064653a0025
:1038100020000000202500000a6b290020726500ae
:10382000647563006520740068726f0074746c00c6
:1038300065206600726f6d0020616d00706c69001c
:1038400074756400653a2000000000002025000027
:103850000a6c290020746f0020636c006f73650090
:103860006420740068726f0074746c0065206100dd
:10387000742061006d706c006974750064653a00b5
:1038800020000000202500000a2020006669650055
:103890006c642000776561006b656e00696e67007f
:1038a00020636f006e7472006f6c20006c6f6f008d
:1038b000700a6d00292032006e6420006f7264006f
:1038c00065723a00200000000a2020006d69730034
:1038d00063656c006c616e00656f7500730a6e0045
:1038e000292069006d6d65006469610074652000c0
:1038f0006d6f74006f722000706861007365200046
:1039000073746500703a2000000000000a6d6100c9
:1039100078207600616c75006520620065666f0036
:10392000726520006f76650072666c006f773a00f2
:10393000200000000a0a7a002920720065747500d0
:10394000726e2000746f20006d6169006e206d0042
:10395000656e75000a0a00007e5802000000000033
:103960000000200081fd210024580200000000001a
:1039700072aaae0003003700d00220005a5802009d
:1039800000000000605e80004800de0061a72000ab
:10399000646a02000000000060a7200010580200c6
:1039a00000000000605e80004800dd0061a720008c
:1039b0002c6a02000000000090a720000048eb00e5
:1039c00060a7200010580200000000000000200046
:1039d00001ff210024580200000000001000370001
:1039e000a0002000fa5902000000000072aaa900fd
:1039f00000f0a6000400370072aaa8000080ea00c8
:103a00008100ea000080b0004800dd00c808de0048
:103a100001007000605e88006c2ea900ceff3700a8
:103a20000000200041ff2100245802000000000097
:103a3000005a8000981f02000000000000002000d3
:103a40006117220024580200000000000700370020
:103a5000a0002000fa59020000000000c61f02006a
:103a600000000000005a8800bbff37000000200063
:103a7000c10022002458020000000000105a8000fb
:103a8000981f0200000000000000200061172200c3
:103a9000245802000000000007003700a0002000aa
:103aa000fa59020000000000c61f020000000000da
:103ab000105a8800a8ff3700000020008102220071
:103ac0002458020000000000205a8000981f0200c5
:103ad00000000000000020006117220024580200ae
:103ae0000000000007003700a0002000fa59020083
:103af00000000000c61f020000000000205a8800dd
:103b000095ff370000002000210422002458020005
:103b10000000000010003700005a80004280de00e4
:103b2000b05188004180de00c0518800716aa80051
:103b300000002600a05f8800c0cc2400400bbc0021
:103b4000b35f8800342aef007c2cef0071eaa900f3
:103b50006e2eef0080ff37000000200001052200dc
:103b6000245802000000000000002000411a22003a
:103b7000716aae0000002000716aae00a119220037
:103b8000245802000000000002003700716aaa00f9
:103b900071ff370000002000810622002458020037
:103ba00000000000b05f8000981f020000000000cd
:103bb00000002000611722002458020000000000cd
:103bc00007003700a0002000fa59020000000000a2
:103bd000c61f020000000000b05f88005eff3700d3
:103be00000002000c107220024580200000000004d
:103bf00000192000f40bbc000300780061a720002e
:103c0000646a02000000000060a720001058020053
:103c10000000000000002000410a22002458020099
:103c20000000000007003700500020009c590200ef
:103c300000000000410a20000100b800a05f8800d9
:103c400045ff370000002000610a220024580200ce
:103c500000000000b0518000981f0200000000002a
:103c6000000020006117220024580200000000001c
:103c700007003700a0002000fa59020000000000f1
:103c8000c61f020000000000b051880032ff37005c
:103c900000002000a10c22002458020000000000b7
:103ca000c0518000981f02000000000000002000aa
:103cb00061172200245802000000000007003700ae
:103cc000a0002000fa59020000000000c61f0200f8
:103cd00000000000c05188001fff370000002000d6
:103ce000010f220024580200000000000000200004
:103cf0008117220071eaaf000000200071eaaf00d6
:103d0000e1172200245802000000000002003700e2
:103d100071eaaa0010ff37000000200041102200c5
:103d20002458020000000000a0518000981f0200eb
:103d3000000000000000200061172200245802004b
:103d40000000000007003700a0002000fa59020020
:103d500000000000c61f020000000000a051880003
:103d6000fdfe370000002000c1122200245802008e
:103d70000000000070738000981f02000000000027
:103d800000002000611722002458020000000000fb
:103d900007003700a0002000fa59020000000000d0
:103da000c61f02000000000070738800eafe3700a2
:103db00000002000a114220024580200000000008e
:103dc000005a80007c0cbc000300d000981f020049
:103dd00000000000000020006117220024580200ab
:103de000000000000f003700a0002000fa59020078
:103df00000000000c61f02000000000080007800e4
:103e00000000eb00025a8000110009004288d8002f
:103e10004240af000000eb000000d100e0638800ea
:103e2000cdfe3700005a8000f40bbc004219dd00c3
:103e3000ce19de00b05f8000000141000380b000b9
:103e40000300e0000400320000002000e11a22001c
:103e5000245802000000000000002000411622004b
:103e60002458020000000000010037000000060096
:103e7000d859020000000000110620000100e100f6
:103e8000d7fe3200210620000100e100f0fe3200e2
:103e9000310620000100e10000ff32004106200051
:103ea0000100e10010ff3200510620000100e10096
:103eb00019ff3200610620000100e10033ff3200eb
:103ec000710620000100e1003eff32008106200063
:103ed0000100e10054ff3200910620000100e100e2
:103ee00064ff3200a10620000100e10074ff3200ef
:103ef000b10620000100e10085ff3200c10620006c
:103f00000100e10090ff3200d10620000100e10035
:103f1000a0ff3200e10620000100e100b2ff320004
:103f2000a10720000100e100d0ff32008afe370027
:103f3000316820000100b800625e800011000900b5
:103f40004288d800000178004500de0061a720000b
:103f5000646a02000000000060a720001058020000
:103f6000000000004b10dd0061a720002c6a020059
:103f70000000000080a720000048eb0060a72000a0
:103f80001058020000000000000006004500dd009f
:103f9000cb08de0001007000615e80000100b80007
:103fa00032682000110009004288d8000000060095
:103fb0000a61290020637500727265006e7420002a
:103fc00073656e00736f720020747200616e73000f
:103fd000696d7000656461006e6365003a200000e1
:103fe000206d56002f4100000a622900206d6100fb
:103ff00078696d00756d20006d6f74006f72200020
:1040000070686100736520006375720072656e00f0
:10401000743a2000000000000a632900206d61004e
:1040200078696d00756d20006261740074657200be
:104030007920630075727200656e74002c206d002b
:104040006f746f007220750073653a0020000000e5
:104050000a642900206d610078696d00756d20008b
:104060006261740074657200792063007572720079
:10407000656e74002c207200656765006e3a200042
:10408000000000000a0a65002920610075746f00b5
:10409000636f6d00706c650074650a0000000000bd
:1040a0000a66290020647200322c200064723200fb
:1040b000333a20006375720072656e0074207400dc
:1040c0006f206300686563006b3a20000000000009
:1040d0000a67290020647200322c200064723200ca
:1040e000333a2000666978006564200070617200d0
:1040f000743a2000000000000a6829002064720061
:10410000322c200064723200333a200070726f004b
:10411000706f720074696f006e616c0020746f00c4
:1041200020746800726f7400746c65002063750001
:10413000727265006e742c002066610063746f00fb
:10414000723a200000000000202500000a692900c2
:1041500020647200333a20006d617800696d75004b
:104160006d20730068757400646f77006e206500c1
:1041700072726f007220630075727200656e740057
:104180002c20660069786500643a20000000000079
:10419000204100000a6a290020647200333a20009e
:1041a0006d617800696d75006d207300687574002d
:1041b000646f77006e20650072726f00722063007a
:1041c00075727200656e74002c207000726f700042
:1041d0006f727400696f6e00616c3a00200000001d
:1041e0000a6b290020647200333a2000736875005e
:1041f00074646f00776e2000626173006564200054
:104200006f6e20003a2000000a6c290020617000c7
:10421000706c690065642000627261006b696e00f9
:104220006720630075727200656e7400202870004c
:1042300068617300652920006f6e20006469720058
:1042400065637400696f6e0020636800616e6700cb
:10425000653a2000000000000a6d2900206f66000a
:104260006673650074206600696c7400657269008d
:104270006e67200028706800617365002920630064
:1042800075727200656e7400206c69006d6974004f
:104290003a2000000a6e2900206d610078696d00e7
:1042a000756d2000666965006c64200077656100ab
:1042b0006b656e00696e6700206375007272650041
:1042c0006e743a00200000000a0a7a002920720069
:1042d00065747500726e2000746f20006d61690056
:1042e0006e206d00656e75000a0a00002041000016
:1042f000495f650072726f007200000061627300b6
:1043000028495f00657272006f722900000000008a
:104310006e6f7400206c69006d6974006564000044
:10432000617574006f206c00696d690074656400cc
:1043300000000000657272006f72200063757200e9
:1043400072656e0074000000746f7400616c200070
:104350006375720072656e00740000000a0a2d0019
:104360002d636f006d6269006e617400696f6e008d
:104370002067200026206800206f750074206f00e1
:1043800066207200616e6700652d2d000000000040
:104390005a0ce2004220af00000006007c2402001c
:1043a000000000006d6aae0000000600e03f020061
:1043b000000000006d8aa900607c0200000000007f
:1043c0008460ae00feff37008460a900de5f8000dd
:1043d0000e0001006d8aae00f9ff37006d8aa9005a
:1043e000dc6280000dc020001d80d10061a720008c
:1043f000ac6a02000000000060a720001058020014
:10440000000000003d0078004f00dd0061a72000a3
:104410002c6a020000000000786aef0060a720000c
:104420001058020000000000900020005a580200be
:10443000000000000c06e900ebff3a00b0608000cd
:10444000981f020000000000000220005a580200dd
:1044500000000000100420005a5802000000000074
:10446000a00020005a580200000000001802ae0010
:10447000d3ff3700fa580200000000007c2402003d
:104480000000000000000600d82302000000000029
:104490007c240200000000006d6aaf0004003700b9
:1044a0005a2cef000000200081342200000006009a
:1044b0005e2aef005a24020000000000abc1200079
:1044c000806080004300dd0080854500f052800060
:1044d0004400de008085450080854500fc0020000a
:1044e000f0528000000666000dc02000100cd400c1
:1044f000808646001d0078005e0ae300120032004c
:10450000ec230200000000000000e00050003a0030
:10451000ec230200000000000000e0004c003a0024
:104520001b60a5004200ae001a240200000000003b
:104530001b60a5004200af003a240200000000000a
:104540009d0ee90032003700ec230200000000005d
:104550000000e0003e003a00000320004401bd00de
:104560001e003100ec230200000000000000e0000b
:1045700037003a00000320004401bd001200310062
:1045800070002000100ce30035003200b823020058
:10459000000000004200a9001b60ad008b00b000cd
:1045a0004200a8001b60ad008b00b1002d00b000e0
:1045b0009d0ee8002d00b1005a2cec001a240200d8
:1045c00000000000120037004200a9001b60ad008f
:1045d0001a240200000000000d003700ec23020046
:1045e000000000000000e00019003a000003200075
:1045f0004401bd00050031004200a8001b60ad0071
:104600003a240200000000000100370018003700c3
:104610009d0ee8005e2aec00000420005e0ae30024
:10462000a6ff3a00102cec00d0628000100ce300d2
:1046300097ff3a000e250200000000000000e00095
:104640000f003a0000002000013a2200000006009e
:104650005a2cef0000002000613522000000060007
:104660005a2cef00000020008136220000000600d6
:104670005a2cef0000002000413822000000060004
:104680005a2cef00000020008139220000000600b3
:104690000a206e006f207300656e73006f727300e6
:1046a00020666f00756e6400000000000a20730031
:1046b000656e73006f7220006f7574007075740002
:1046c0002073740075636b0020617400203000005b
:1046d0000a2074006f6f20006d616e0079207400f5
:1046e000656d7000207365006e736f00727320003b
:1046f000286d6100782038002073750070706f009d
:1047000072746500642900000a2063006f6e7400f3
:1047100061637400206c6f0073742000776974000b
:1047200068207300656e73006f72730000000000f4
:104730000a20430052432000657272006f7200002d
:104740000a207300656e73006f72280073292000c1
:10475000696465006e7469006669650064207300b1
:10476000756363006573730066756c006c79000097
:1047700070002000100cbd000000e900e2c0200025
:10478000c3c02000008009002311780070002000c1
:10479000100cbd004200dd000000e90082c52000d1
:1047a00003c52000008009002311780000000600e6
:1047b0000ac0200007000900001deb00aac120006c
:1047c0001f000900001deb00102cef00100020005e
:1047d000d062880000000600d622a900d222a900db
:1047e00070002000600888000621ef0084c0a90046
:1047f00000082000300a88000000000000000000cf
:1048000030082000300a880084c0ae00feff370068
:10481000d222a800c01220006008880084c0a9002d
:1048200084c0ae00feff37004661ae0010000500f8
:1048300000000500d622a900d222a900c012200043
:10484000600888000621ef0084c0a90084c0ae0083
:10485000feff3700d222a800200120006008880057
:104860000621ef0084c0a90084c0ae00feff37001f
:1048700000000600d622a900d222a90020012000b3
:10488000600888000621ef0084c0a90084c0ae0043
:10489000feff3700d222a800c01220006008880066
:1048a0000621ef0084c0a90084c0ae00feff3700df
:1048b000000006001a240200000000001a24020072
:1048c000000000001a240200000000001a24020068
:1048d000000000003a240200000000003a24020018
:1048e000000000003a240200000000003a24020008
:1048f0000000000000000600d622a900d222a90074
:10490000a08c2000600888000621ef0084c0a90068
:1049100084c0ae00feff3700d222a800701720002e
:10492000600888000621ef0084c0a90084c0ae00a2
:10493000feff37006d6aa900d422ae006d6aa800a0
:10494000d422ae00feff37007017200060088800f8
:104950000621ef0084c0a90084c0ae00feff37002e
:1049600000000600da6280000a00e0004220af008a
:10497000000006000bc22000a00020005a580200d0
:1049800000000000a00020005a58020000000000b3
:10499000000220005a580200000000000a007800bf
:1049a0005a0cb50061a72000646a020000000000f4
:1049b00060a720001058020000000000a0032000a3
:1049c0005a58020000000000000220005a5802005d
:1049d0000000000040002000f05288002b0078000a
:1049e00061a72000de6902000000000060a720002f
:1049f0001058020000000000000220005a58020077
:104a0000000000005e2aed00f4ff3a000b01b00048
:104a10000a05e900dbff3a0000000600102cef0059
:104a2000122cef005e2aef00abc1200080608000f6
:104a30004300dd0080854500f05280004400de0028
:104a40008085450080854500fc002000f0528000f4
:104a500000066600c0082000122cd5004200af00fe
:104a600012acb6001b60a5004200af0012acb6004d
:104a70005e2aec00000420005e0ae300eaff3a0030
:104a8000120ce20005003a00102cec00806080005f
:104a90005a0ce300e2ff3a00000005001000050098
:104aa0005a0ce20001003a00000006005e2aef0006
:104ab000a00020005a58020000000000a0002000c2
:104ac0005a58020000000000000320005e0ab400f3
:104ad0005a5802000000000000002000015c220083
:104ae0002458020000000000cdc520005e0ad4005a
:104af000808646001d80d10061a72000ac6a0200bc
:104b00000000000060a72000105802000000000014
:104b10001d0078004f00dd0061a720002c6a020014
:104b200000000000786aef0060a720001058020023
:104b30000000000000002000815d220024580200d7
:104b400000000000cdc620005e0ad400808646002a
:104b50001d00d000981f020000000000000020008f
:104b6000015e220024580200000000005e2aec00d2
:104b7000d06280005e0ae300d3ff3a000000060026
:104b80002920720065647500636520006d617800fe
:104b900020706800617365002063750072726500a3
:104ba0006e74200061626f007665200000000000d6
:104bb0002064650067432000627920000000000047
:104bc00020412f0064656700430a00005a0ce20090
:104bd00001003a0000000600801f7800cdc52000cb
:104be000ccc62000d1628000f15288000103200071
:104bf0000100e100070032008d86e8000c86e80025
:104c00008100e8005e2aed00f9ff3a004f007800cd
:104c10000000060000002000c163220024580200aa
:104c200000000000a0002000fa590200000000006f
:104c30008180d200808ed2000000200061662200b8
:104c40002458020000000000a0002000fa590200d1
:104c50000000000000f0a7008180ea0000f0a7003b
:104c60000080ea00c61f020000000000008ed10094
:104c70004f007800000006000a7465006d70650042
:104c80007261740075726500206162006f76650064
:104c9000207768006963680020746f0020726500e7
:104ca00064756300652070006861730065206300af
:104cb00075727200656e7400205b69006e2064007e
:104cc000656743005d3a0a00000000000a72650053
:104cd000647563006520700068617300652063007f
:104ce00075727200656e740020627900205b690045
:104cf0006e2041002f64650067435d003a0a0000a2
:104d0000cdcf20000cd22000350009002d167800f0
:104d10000000eb00d1e2af0000f0a000d1a2af0094
:104d200000e0a000d1c2af0000d0a000dd02af00c3
:104d300000c0a0006d2aaf0000b0a0006c4aaf0018
:104d400000a0a0006d0aaf000090a0006daaaf0007
:104d50000080a0009064880093ecaf00070037004b
:104d600093ccaf000e00370093acaf0010003700bb
:104d7000938caf001300370014003700082aef00af
:104d8000262aef002a2aef003c2aef003e2aef00f5
:104d9000c42aef00d22aef00d62aef000b0037001a
:104da000c42aef00d22aef00d62aef00070037000e
:104db000938caf000100370004003700934ca9002a
:104dc000020037002e2def00936ca9005064800084
:104dd000a064880060648000b0648800505980003e
:104de000c064880020568000d06488004050800055
:104df000e064880090568000f064880030518000a4
:104e0000006588005051800010658800e0518000e6
:104e100020658800f05180004a0eb400306588009b
:104e2000b056800040658800acbb2000adca2000b1
:104e3000bc1e7800ac1678002cbc2000edca200007
:104e4000bc1e7800ac167800706480009065880005
:104e500080648000a065880000000600000020003b
:104e6000e19d220024580200000000001d80a600e1
:104e70000400370000002000c19f220024580200d7
:104e8000000000001db0a600040037000000200054
:104e9000e1a0220024580200000000001da0a6008e
:104ea000040037000000200041a022002458020026
:104eb000000000001d90a600040037000000200044
:104ec00021a222002458020000000000000020005f
:104ed000a1a22200245802000000000000032000cc
:104ee0001df0a600e00220005a5802000000000059
:104ef000100320001de0a600e00220005a58020026
:104f000000000000200320001dd0a600e0022000c9
:104f10005a58020000000000300320001dc0a60007
:104f2000e00220005a5802000000000000002000ab
:104f3000e1a3220024580200000000000402200027
:104f400066290200000000000000200021a52200c8
:104f500024580200000000002400200066290200fe
:104f60000000000000002000a1a62200245802003a
:104f700000000000800c2000bd0090000180b800ff
:104f80000100780061a72000ac6a02000000000068
:104f900060a7200010580200000000000000200060
:104fa000e1a72200245802000000000000002000b9
:104fb00001a8220024580200000000001d089000f3
:104fc000801f780080007800d002200001f0a70048
:104fd0005a580200000000004f00780000f0a700bf
:104fe0000000ea00981f02000000000000002000fe
:104ff00041a9220024580200000000000000200007
:1050000061a9220024580200000000002d08900031
:10501000801f780080007800d002200001f0a700f7
:105020005a580200000000004f00780000f0a7006e
:105030000000ea00981f02000000000000002000ad
:1050400041a92200245802000000000000002000b6
:10505000a1aa220024580200000000006d00900068
:10506000801f780080007800d002200001f0a700a7
:105070005a580200000000004f00780000f0a7001e
:105080000000ea00981f020000000000000020005d
:1050900041a9220024580200000000000000200066
:1050a000e1ab220024580200000000003d089000ff
:1050b000801f780080007800d002200001f0a70057
:1050c0005a580200000000004f00780000f0a700ce
:1050d0000000ea00981f020000000000000020000d
:1050e00041a9220024580200000000000000200016
:1050f00021ad220024580200000000004d00900065
:10510000801f780080007800d002200001f0a70006
:105110005a580200000000004f00780000f0a7007d
:105120000000ea00981f02000000000000002000bc
:1051300041a92200245802000000000000002000c5
:1051400061ae22002458020000000000800c200004
:10515000fd0090000180b8000100780061a72000e8
:10516000ac6a02000000000060a720001058020096
:105170000000000000002000e1a7220024580200e7
:105180000000000000002000a1af2200245802000f
:1051900000000000800c20008d0890000180b80005
:1051a0000100780061a72000ac6a02000000000046
:1051b00060a720001058020000000000000020003e
:1051c000e1a7220024580200000000000000200097
:1051d000e1b0220024580200000000005d009000b1
:1051e000801f780080007800d002200001f0a70026
:1051f0005a580200000000004f00780000f0a7009d
:105200000000ea0071b721000100b800e2528000fe
:10521000110009004288d800000178004800de0033
:1052200061a72000646a02000000000060a720005f
:1052300010580200000000004810dd0061a72000a7
:105240002c6a020000000000796aef0060a72000cd
:1052500010580200000000000000200021b22200cf
:10526000245802000000000000002000e19a220003
:1052700024580200000000008b0120008b854600ae
:10528000585002000000000000002000219c220075
:10529000245802000000000000002000619c220051
:1052a0002458020000000000cb0120008b8546003e
:1052b000aa5002000000000000002000a19d220072
:1052c000245802000000000000000600911c20008d
:1052d00000382c00e2528000110009004288d800fa
:1052e000000178006d007a000482e800ed007a0089
:1052f000110009004288d800821f7800811f7800c1
:1053000061a72000646a02000000000060a720007e
:105310001058020000000000cf0078004f01780014
:105320000000eb00110009004288d80061a72000ae
:105330002c6a0200000000007a6aef0060a72000db
:1053400010580200000000000000200061a62200aa
:105350002458020000000000000006000a4c3a0039
:1053600020202000202020002020200020202000bd
:1053700020202000202020002020200020202000ad
:105380002000000020754800000000000a523a008a
:10539000202020002020200020202000202020008d
:1053a000202020002020200020202000202020007d
:1053b00020000000206d4f00686d00000a7374002b
:1053c0006174750073206200697473003a202000d4
:1053d000202020002020200020202000202020004d
:1053e0002000000073616600657479005f636f00e0
:1053f0006566730020000000636c690070706900ce
:105400006e672000000000006f766500725f690023
:105410005f657200726f7200200000006f76650099
:10542000725f69005f746f0074616c00206f7200be
:10543000206f760065725f00695f650072726f00b1
:10544000722000006f766500725f650072706d00fb
:10545000200000000a64720069766500204c450057
:1054600044533a002020200020202000202020004b
:105470002020200020202000200000000a746f005f
:1054800074616c00206f6e00207469006d653a00d5
:10549000202020002020200020202000202020008c
:1054a000200000000a7469006d652000696e20000c
:1054b00064726900766520006d6f6400653a2000b3
:1054c0002020200020202000200000002073650004
:1054d000630000000a746800726f7400746c6500e9
:1054e0003a20200020202000202020002020200022
:1054f0002020200020202000200000002025000087
:105500000a7761006e746500645f69005f746f0004
:1055100072717500653a20002020200020202000b4
:105520002020200020000000204100000a776100b8
:105530006e746500645f69005f666900656c640095
:10554000776561006b3a2000202020002020200099
:10555000200000000a6d65006173750072656400cb
:105560005f695f00746f7200717565003a202000fa
:105570002020200020202000200000000a6d65006f
:1055800061737500726564005f695f00666965003c
:105590006c64770065616b003a20200020202000b9
:1055a000200000000a6d650061737500726564007b
:1055b0005f695f00657272006f723a002020200000
:1055c0002020200020202000200000000a566f002c
:1055d00075745f00726561006c3a20002020200025
:1055e000202020002020200020202000202020003b
:1055f000200000000a566f0075745f00696d61003d
:10560000673a2000202020002020200020202000b9
:105610002020200020202000200000000a737000bd
:10562000656564003a202000202020002020200012
:1056300020202000202020002020200020202000ea
:1056400020000000206b2d00657270006d000000ce
:105650007e580200000000000000200001ed220042
:105660002458020000000000805080008c2e0200b0
:10567000000000000000200081fb220024580200ee
:1056800000000000110020000000eb00a25080008c
:105690000200e0004220af000081eb001100090091
:1056a0004288d800100ab4008c2e020000000000ce
:1056b00000002000e1fa220024580200000000004f
:1056c00019003700b82e020000000000805088004a
:1056d000b82e020000000000100abd000001780092
:1056e000110020000000eb000200e0004220af00ab
:1056f00012002000110009004288d800a050880044
:1057000080508000915080000100e6000100780088
:10571000c050880001c429000100b80001007800d1
:10572000182ab400caff37000000200021ef220031
:105730002458020000000000905080008c2e0200cf
:10574000000000000000200081fb2200245802001d
:1057500000000000110020000000eb00b2508000ab
:105760000200e0004220af000081eb0011000900c0
:105770004288d800120ab4008c2e020000000000fb
:1057800000002000e1fa220024580200000000007e
:1057900019003700b82e0200000000009050880069
:1057a000b82e020000000000120abd0000017800bf
:1057b000110020000000eb000200e0004220af00da
:1057c00012002000110009004288d800b050880063
:1057d00080508000915080000100e60001007800b8
:1057e000c050880001c429000100b8000100780001
:1057f000182ab40096ff37000000200041f1220073
:10580000245802000000000000518000a1b42600ce
:105810000100b800e2528000110009004288d8005f
:1058200061a72000646a02000000000060a7200059
:1058300010580200000000000000200081fb220040
:105840002458020000000000110020000000eb00be
:10585000125180000200e0004220af000081eb0006
:10586000110009004288d800200ab400a1b4260023
:105870000100b800e2528000110009004288d800ff
:1058800061a72000646a02000000000060a72000f9
:1058900010580200000000000000200041fb220020
:1058a00024580200000000001c00370040002000c7
:1058b0009c59020000000000e15280000100b80085
:1058c000a2b42600110009004288d80000518800c7
:1058d000400020009c59020000000000e1528000be
:1058e0000100b800a2b42600110009004288d800c7
:1058f000200abd0000017800110020000000eb002c
:105900000200e0004220af000081eb00110009001e
:105910004288d800105188004dff37000000200059
:1059200081f222002458020000000000f0508000a4
:10593000a1b426000100b800e25280001100090065
:105940004288d80061a72000646a020000000000bd
:1059500060a7200010580200000000000000200096
:1059600041fb220024580200000000000a0037001a
:10597000400020009c59020000000000e15280001d
:105980000100b800a2b42600110009004288d80026
:10599000f05088002eff37000000200001f42200a4
:1059a0002458020000000000e0508000a1b426004e
:1059b0000100b800e2528000110009004288d800be
:1059c00061a72000646a02000000000060a72000b8
:1059d00010580200000000000000200041fb2200df
:1059e00024580200000000000e0037004000200094
:1059f0009c59020000000000e15280000100b80044
:105a0000a2b42600110009004288d800d1508000bd
:105a10000100e100010039000100e900e0508800c8
:105a20000bff37000000200021f52200245802005f
:105a300000000000d0508000a1b426000100b80092
:105a4000e2528000110009004288d80061a72000be
:105a5000646a02000000000060a7200010580200e5
:105a6000000000000000200041fb2200245802003a
:105a7000000000000e003700500020009c5902007a
:105a800000000000e15280000100b800a2b426002e
:105a9000110009004288d800e15080000100e100b7
:105aa00001003e000100e800d0508800e8fe370009
:105ab0000000200041f622002458020000000000ef
:105ac00000002000a1fb2200724aae00000020006e
:105ad000724aae00e1fb22002458020000000000e0
:105ae000724aae006700370002003700724aaa000f
:105af000d7fe370000002000a1f722002458020042
:105b00000000000011032000b0cd2100e25280000f
:105b1000110009004288d800f16a80000100b80035
:105b2000e2528000110009004288d800000178008c
:105b30004800de0061a72000646a02000000000047
:105b400060a7200010580200000000004810dd008f
:105b500061a720002c6a020000000000796aef00b3
:105b600060a7200010580200000000000000200084
:105b700081fb2200245802000000000011032000d5
:105b8000b0cd2100e2528000110009004288d80007
:105b9000016b80000100b800e25280001100090092
:105ba0004288d800000178004800de0061a720008c
:105bb000646a02000000000060a720001058020084
:105bc000000000004810dd0061a720002c6a0200e0
:105bd00000000000796aef0060a720001058020062
:105be000000000000000200041f9220024580200bb
:105bf0000000000023003700a0002000fa59020036
:105c0000000000004800dd00c808de000100700050
:105c1000e15280000100b800826f200011000900ed
:105c20004288d800e15280000100b800826f200055
:105c3000110009004288d800f06a8800a000200006
:105c4000fa590200000000004800dd00c808de002c
:105c500001007000e15280000100b800826f200056
:105c6000110009004288d800e15280000100b8000c
:105c7000826f2000110009004288d800006b880064
:105c800073fe370000002000c1f9220024580200f2
:105c900000000000020037006c6ea9000000060042
:105ca000d859020000000000110620000100e100a8
:105cb00084fe3200210620000100e100b5fe320022
:105cc000310620000100e100f8fe3200410620000c
:105cd0000100e10026ff3200510620000100e10032
:105ce00042ff3200610620000100e10062ff320045
:105cf000710620000100e1007cff320081062000d7
:105d00000100e100bcff3200a10720000100e1001a
:105d1000e1ff32004efe370071b721000100b800ec
:105d2000e2528000110009004288d800000178008a
:105d30004800de0061a72000646a02000000000045
:105d400060a7200010580200000000004810dd008d
:105d500061a720002c6a020000000000796aef00b1
:105d600060a720001058020000000000000006009c
:105d7000a0002000fa590200000000004800dd00e9
:105d8000c808de0001007000e15280000100b80088
:105d900072b72100110009004288d80000000600f7
:105da0000a61290020657200706d20006c696d0029
:105db0006974650072202800666f72007761720056
:105dc0006429200072616d0070646f00776e20009e
:105dd0007374610072742c0020656e00643a2000b8
:105de000000000000a62290020657200706d20002a
:105df0006c696d0069746500722028007265760018
:105e0000657273006529200072616d0070646f0017
:105e1000776e20007374610072742c0020656e0030
:105e2000643a2000000000000a6329002072650027
:105e300067656e00207261006d70750070207300e0
:105e400074617200742c2000656e64003a200000ba
:105e50000a64290020616300636570007420640097
:105e600069726500637469006f6e20006368610089
:105e70006e676500206265006c6f77003a20000055
:105e80000a65290020657200706d2000647233007d
:105e900020626100636b2000746f20006472320026
:105ea0003a2000000a66290020657200706d20000b
:105eb00064723200206a75006d702000746f2000db
:105ec000647233003a2000000a0a67002920750036
:105ed0007365200061636300656c65007261740026
:105ee000696f6e00206c69006d69740065723a001c
:105ef000200000000a6829002061630063656c00cf
:105f00006572610074696f006e206c00696d6900d4
:105f10007465720020737400617274002c20650037
:105f20006e643a0020000000206b650072706d0006
:105f30002f736500630000000a0a7a0029207200ae
:105f400065747500726e2000746f20006d616900c9
:105f50006e206d00656e75000a0a0000206b2d0032
:105f6000657270006d00000020657200706d0000a9
:105f70002c20000079657300000000006e6f0000a7
:105f80007e580200000000000000eb000040a0006e
:105f90000050a000700ab6000000e00002003200cd
:105fa000706aa80002003700706aa90070caa900d0
:105fb000000020008121230024580200000000007e
:105fc00060598000625f020000000000c0022000f3
:105fd0005a58020000000000000220005a58020037
:105fe0000000000070598000625f020000000000a5
:105ff000c00220005a5802000000000000022000e9
:106000005a5802000000000080598000625f0200c0
:106010000000000000002000e125230024580200b9
:106020000000000090598000625f02000000000044
:10603000c00220005a5802000000000000022000a8
:106040005a58020000000000a0598000625f020060
:1060500000000000c00220005a58020000000000aa
:10606000000220005a58020000000000b0598000d1
:10607000625f0200000000000000200041282300b1
:106080002458020000000000708aae0005003700ae
:1060900000002000212f23002458020000000000ef
:1060a0000400370000002000612f23002458020064
:1060b0000000000000002000812923002458020075
:1060c0000000000070aaae000500370000002000ac
:1060d000212f230024580200000000000400370094
:1060e00000002000612f230024580200000000005f
:1060f00000002000c12a23002458020000000000f4
:10610000706aae000500370000002000612f2300f8
:1061100024580200000000000400370000002000a6
:10612000212f23002458020000000000000020005e
:10613000212c2300245802000000000070caae0089
:106140000500370000002000212f23002458020002
:10615000000000000400370000002000612f230031
:10616000245802000000000000002000412d230000
:106170002458020000000000d8590200000000006e
:10618000110620000100e100190032002106200064
:106190000100e10054003200310620000100e1005e
:1061a0008f003200410620000100e1009100320022
:1061b000510620000100e10093003200610620003a
:1061c0000100e10092003200710620000100e100b0
:1061d00091003200810620000100e10090003200b1
:1061e000a10720000100e1009000320064ff3700a9
:1061f000a8e2a900c6e2a8008d60a900f00028006e
:1062000000158800000020001015880050002000b4
:106210002015880070002000301588000000200044
:10622000812f23002458020000000000fa580200c9
:10623000000000000000eb000f0008000800000054
:10624000a022a90000000000a002ae00feff37005f
:106250008002b400803e0900000000000000000041
:1062600000000000c400de00c15988003a5f02004f
:106270000000000000002000a13323002458020089
:1062800000000000fa580200000000000000eb00cf
:106290000f00080008000000a022a9000000000074
:1062a000a002ae00feff37008002b400803e09006d
:1062b000000000000000000000000000801f7800c7
:1062c0004400de00380bbd00d05988004f00780034
:1062d0003a5f020000000000fa58020000000000cf
:1062e000a1e2a90026ff3700a902a900c702a80061
:1062f0008d60a900f0002800001588000000200033
:106300001015880050002000201588008000200013
:106310003015880000002000213623002458020098
:1063200000000000fa580200000000000000eb002e
:106330000f00080008000000a022a90000000000d3
:10634000a002ae00feff37008002b400803e0900cc
:10635000000000000000000000000000c400de009b
:10636000e15988003a5f02000000000000002000b0
:10637000413a23002458020000000000fa580200ad
:10638000000000000000eb000f0008000800000003
